:100000000C945D000C9485000C9485000C94850084
:100010000C9485000C9485000C9485000C9485004C
:100020000C9485000C94E2020C9485000C948500DD
:100030000C9485000C9485000C9485000C9485002C
:100040000C9440020C9485000C94B0020C948A022B
:100050000C9485000C9485000C9485000C9485000C
:100060000C9485000C94850000000008000201003B
:100070000003040700000000000000000000000072
:10008000250028002B0000000000240027002A0083
:10009000040404040404040402020202020203032E
:1000A0000303030301020408102040800102040836
:1000B00010200102040810206D0511241FBECFEF8F
:1000C000D8E0DEBFCDBF15E0A0E0B1E0EAECFEE095
:1000D00002C005900D92A435B107D9F726E0A4E53A
:1000E000B5E001C01D92AA39B207E1F710E0CDE5F5
:1000F000D0E004C02197FE010E94BC05CC35D10799
:10010000C9F70E94C5030C9463070C94000090E0AB
:10011000FC01EC55FF4F2491FC01E057FF4F849107
:10012000882399F090E0880F991FFC01EA57FF4F50
:10013000A591B491FC01E458FF4F859194918FB73C
:10014000F894EC91E22BEC938FBF0895E2E7F0E096
:100150009491EEEAF0E02491EAE9F0E0E491EE23F4
:1001600009F43CC0992339F1933091F038F491307F
:10017000A9F0923001F594B59F7D12C0973091F0AF
:100180009830A1F09430B9F4909180009F7D03C025
:10019000909180009F77909380000DC094B59F77D9
:1001A00094BD09C09091B0009F7703C09091B000BA
:1001B0009F7D9093B000F0E0EE0FFF1FE458FF4FDB
:1001C000A591B4919FB7F894811104C08C912095AA
:1001D000282302C0EC912E2B2C939FBF08953FB78C
:1001E000F8948091960690919706A0919806B09108
:1001F000990626B5A89B05C02F3F19F00196A11DB1
:10020000B11D3FBFBA2FA92F982F8827820F911DAC
:10021000A11DB11DBC01CD0142E0660F771F881FF3
:10022000991F4A95D1F70895CF92DF92EF92FF92EE
:100230000F931F93CF93DF936C017A018B01C0E082
:10024000D0E0CE15DF0581F0D8016D918D01D6018A
:10025000ED91FC910190F081E02DC6010995892B6B
:1002600011F02196EECF7E01C701DF91CF911F9152
:100270000F91FF90EF90DF90CF900895089580E068
:1002800090E00895FC01538D448D252F30E0842F9C
:1002900090E0821B930B541710F0CF9608950197AE
:1002A0000895FC01918D828D981761F0828DDF0198
:1002B000A80FB11D5D968C91928D9F5F9F73928F59
:1002C00090E008958FEF9FEF0895FC01918D828D4E
:1002D000981731F0828DE80FF11D858D90E008951B
:1002E0008FEF9FEF0895FC01918D228D892F90E073
:1002F000805C9F4F821B91098F73992708958FE52A
:1003000095E00E94730121E0892B09F420E0822FFF
:100310000895FC01848DDF01A80FB11DA35ABF4FC2
:100320002C91848D90E001968F739927848FA689F4
:10033000B7892C93A089B1898C91837080648C9348
:10034000938D848D981306C00288F389E02D8081F7
:100350008F7D80830895EF92FF920F931F93CF9329
:10036000DF93EC0181E0888F9B8D8C8D981305C005
:10037000E889F989808185FD26C0F62E0B8D10E075
:100380000F5F1F4F0F731127E02E8C8DE8120CC0EA
:100390000FB607FCFACFE889F989808185FFF5CF90
:1003A000CE010E948901F1CF8B8DFE01E80FF11D76
:1003B000E35AFF4FF0829FB7F8940B8FEA89FB89CD
:1003C000808180620AC09FB7F894EE89FF896083BC
:1003D000E889F98980818370806480839FBF81E090
:1003E00090E0DF91CF911F910F91FF90EF900895D2
:1003F000CF93DF93EC01888D8823C9F0EA89FB89CC
:10040000808185FD05C0A889B9898C9186FD0FC0C2
:100410000FB607FCF5CF808185FFF2CFA889B98997
:100420008C9185FFEDCFCE010E948901E7CFDF914E
:10043000CF91089580E090E0892B29F00E947F0100
:1004400081110C9400000895CF93DF93D82FC92F0A
:1004500080E00E94A600CF70C063CEBD00000DB446
:1004600007FEFDCF8EB5DEBD00000DB407FEFDCF4B
:100470008EB581E0DF91CF910C94A6000E945E07BB
:100480001F920F920FB60F9211242F933F938F93C9
:100490009F93AF93BF938091920690919306A09102
:1004A0009406B09195063091910623E0230F2D37E5
:1004B00020F40196A11DB11D05C026E8230F029668
:1004C000A11DB11D209391068093920690939306EF
:1004D000A0939406B0939506809196069091970606
:1004E000A0919806B09199060196A11DB11D809327
:1004F000960690939706A0939806B0939906BF919D
:10050000AF919F918F913F912F910F900FBE0F90C0
:100510001F9018951F920F920FB60F9211242F93D0
:100520003F934F935F936F937F938F939F93AF937B
:10053000BF93EF93FF938FE595E00E948901FF91B0
:10054000EF91BF91AF919F918F917F916F915F914B
:100550004F913F912F910F900FBE0F901F901895C4
:100560001F920F920FB60F9211242F938F939F9388
:10057000EF93FF93E0916F05F09170058081E0911A
:100580007505F091760582FD12C090818091780505
:100590008F5F8F7320917905821751F0E091780574
:1005A000F0E0E15AFA4F958F8093780501C0808181
:1005B000FF91EF919F918F912F910F900FBE0F9010
:1005C0001F9018951F920F920FB60F921124CF9281
:1005D000DF92EF92FF920F931F932F933F934F93CE
:1005E0005F936F937F938F939F93AF93BF93EF939B
:1005F000FF93CF93DF93CDB7DEB7A197DEBFCDBF1B
:1006000080915D058093B20080915A0590915B05C1
:1006100081309105A1F118F0029771F052C010924B
:1006200059051092580510925705109256051092D0
:100630005505109254053FC0009158051091590579
:10064000F801EE0FFF1FE050FF4F808191810E9463
:1006500024020F5F1F4F0F3182E0180728F4109318
:100660005905009358052DC0109259051092580550
:100670008BEA93E00E94240281E090E01EC080910A
:10068000560590915705019690935705809356050E
:10069000A0E0B0E04091FC055091FD056091FE05A1
:1006A0007091FF0584179507A607B70750F01092C1
:1006B00057051092560582E090E090935B05809379
:1006C0005A05809154059091550501968233910504
:1006D00028F4909355058093540538C01092550521
:1006E00010925405209104063091050640E050E038
:1006F00019A28E010F5D1F4F8AE0C82ED12CE12C6C
:10070000F12CCA01B901A70196010E949A05605D0A
:10071000F80162938F01211531054105510589F7D3
:10072000309761F001900020E9F73197AF01401B4D
:10073000510BB8018FE595E00E94140142E050E0B2
:1007400060E575E08FE595E00E941401A1960FB673
:10075000F894DEBF0FBECDBFDF91CF91FF91EF9137
:10076000BF91AF919F918F917F916F915F914F91C9
:100770003F912F911F910F91FF90EF90DF90CF90BD
:100780000F900FBE0F901F901895789484B58260DB
:1007900084BD84B5816084BD85B5826085BD85B525
:1007A000816085BD80916E00816080936E001092A3
:1007B000810080918100826080938100809181001E
:1007C00081608093810080918000816080938000AF
:1007D0008091B10084608093B1008091B00081600D
:1007E0008093B00080917A00846080937A00809139
:1007F0007A00826080937A0080917A008160809391
:100800007A0080917A00806880937A001092C1000B
:10081000E0916F05F091700582E08083E0916B05B7
:10082000F0916C051082E0916D05F0916E058FECF2
:10083000808310927705E0917305F091740586E04E
:100840008083E0917105F0917205808180618083E1
:10085000E0917105F0917205808188608083E0915C
:100860007105F0917205808180688083E091710547
:10087000F091720580818F7D80838AE00E948700DD
:100880008BE00E9487008DE00E948700CFB7F8942C
:1008900080915C05811123C0EAE9F0E08491EEEAE1
:1008A000F0E09491E82FF0E0EE0FFF1FEA57FF4FC2
:1008B000A591B491EC91E92319F481E00E94A6007E
:1008C0008AE00E9487008CB580618CBD8CB5806405
:1008D0008CBD8DE00E9487008BE00E948700809194
:1008E0005C058F5F80935C05CFBF8CB5837F8CBD2B
:1008F0008CB58C7F82608CBD8DB58E7F8DBD8CB5A7
:100900008F7D8CBD8CE291E090938E0680938D0656
:1009100080E594E09093900680938F06809170001C
:100920008E7F809370008091B0008C7F8093B000A8
:100930008091B100877F8093B1008091B6008F7D58
:100940008093B600809170008D7F809370008091BD
:10095000B10085608093B1008091B1008D7F80935C
:10096000B10083E890E090935E0580935D0583E895
:100970008093B20080917000816080937000CAE81B
:10098000D6E080918F069091900690938C0680938C
:100990008B06E0918A0621E02E0F20938A0634E030
:1009A000E39FF0011124E65FF94FA0E0B0E08083FF
:1009B0009183A283B383203211F410928A06EAE075
:1009C000F6E080E090E0DC014191519161917191FC
:1009D000840F951FA61FB71FCE17DF07A9F725E0C5
:1009E000B695A795979587952A95D1F78093060692
:1009F00090930706A0930806B0930906F894809197
:100A00000606909107069093050680930406789455
:100A100060918B0670918C0680E090E00E94D00679
:100A200020E030E040E251E40E942F06609300068F
:100A3000709301068093020690930306F894209128
:100A4000000630910106409102065091030660E0D5
:100A500070E68AE697E40E942F060E94A10680E0D5
:100A600090E00E94D00620E030EC47E054E40E9481
:100A7000C2050E94A1066093FC057093FD0580935A
:100A8000FE059093FF0578940E94EF004B015C01F6
:100A900034E1C32ED12CE12CF12C0E94EF00DC01BB
:100AA000CB0188199909AA09BB09883E9340A10581
:100AB000B10598F381E0C81AD108E108F10828EEE1
:100AC000820E23E0921EA11CB11CC114D104E104CA
:100AD000F10419F70E941A0254CFEFE5F5E01382F2
:100AE000128288EE93E0A0E0B0E084839583A68331
:100AF000B78382E495E09183808385EC90E09587CD
:100B0000848784EC90E09787868780EC90E0918BD7
:100B1000808B81EC90E0938B828B82EC90E0958BC4
:100B2000848B86EC90E0978B868B118E128E138EC1
:100B3000148E0895A1E21A2EAA1BBB1BFD010DC045
:100B4000AA1FBB1FEE1FFF1FA217B307E407F5077D
:100B500020F0A21BB30BE40BF50B661F771F881F59
:100B6000991F1A9469F760957095809590959B01EF
:100B7000AC01BD01CF010895EE0FFF1F0590F49168
:100B8000E02D09945058BB27AA270E94DA050C943F
:100B900024070E94160738F00E941D0720F039F440
:100BA0009F3F19F426F40C9413070EF4E095E7FB2D
:100BB0000C940D07E92F0E94350758F3BA17620706
:100BC00073078407950720F079F4A6F50C9457076E
:100BD0000EF4E0950B2EBA2FA02D0B01B901900158
:100BE0000C01CA01A0011124FF27591B99F0593F9C
:100BF00050F4503E68F11A16F040A22F232F342FE4
:100C00004427585FF3CF469537952795A795F04031
:100C10005395C9F77EF41F16BA0B620B730B840B46
:100C2000BAF09150A1F0FF0FBB1F661F771F881FFE
:100C3000C2F70EC0BA0F621F731F841F48F4879556
:100C400077956795B795F7959E3F08F0B0CF939548
:100C5000880F08F09927EE0F9795879508950E94C1
:100C600043060C9424070E941D0758F00E941607A3
:100C700040F029F45F3F29F00C940D0751110C94BA
:100C800058070C9413070E94350768F39923B1F3B2
:100C9000552391F3951B550BBB27AA2762177307A2
:100CA000840738F09F5F5F4F220F331F441FAA1F36
:100CB000A9F335D00E2E3AF0E0E832D091505040F2
:100CC000E695001CCAF72BD0FE2F29D0660F771FA0
:100CD000881FBB1F261737074807AB07B0E809F086
:100CE000BB0B802DBF01FF2793585F4F3AF09E3F0B
:100CF000510578F00C940D070C9458075F3FE4F30E
:100D0000983ED4F3869577956795B795F7959F5F4D
:100D1000C9F7880F911D9695879597F90895E1E099
:100D2000660F771F881FBB1F621773078407BA07F8
:100D300020F0621B730B840BBA0BEE1F88F7E09553
:100D400008950E943D0788F09F5798F0B92F992782
:100D5000B751B0F0E1F0660F771F881F991F1AF0A6
:100D6000BA95C9F714C0B13091F00E945707B1E0AD
:100D700008950C945707672F782F8827B85F39F0AC
:100D8000B93FCCF3869577956795B395D9F73EF43F
:100D900090958095709561957F4F8F4F9F4F0895E7
:100DA000E89409C097FB3EF4909580957095619505
:100DB0007F4F8F4F9F4F9923A9F0F92F96E9BB27BB
:100DC0009395F695879577956795B795F111F8CF37
:100DD000FAF4BB0F11F460FF1BC06F5F7F4F8F4FA2
:100DE0009F4F16C0882311F096E911C0772321F098
:100DF0009EE8872F762F05C0662371F096E8862F30
:100E000070E060E02AF09A95660F771F881FDAF786
:100E1000880F9695879597F9089597F99F6780E8C9
:100E200070E060E008959FEF80EC089500240A943C
:100E30001616170618060906089500240A941216B5
:100E40001306140605060895092E0394000C11F4E8
:100E5000882352F0BB0F40F4BF2B11F460FF04C095
:100E60006F5F7F4F8F4F9F4F089557FD9058440FEE
:100E7000551F59F05F3F71F04795880F97FB991FF9
:100E800061F09F3F79F087950895121613061406B6
:100E9000551FF2CF4695F1DF08C016161706180643
:100EA000991FF1CF86957105610508940895E8941E
:100EB000BB2766277727CB0197F9089581E090E05B
:0A0EC000F8940C946307F894FFCF38
:100ECA00AB03AC03AD03AE03B003B103B203B30388
:100EDA00B703BC03C203C703CD03D203D703DD03A1
:100EEA00E203E803ED03F70300040A0413041D04F4
:100EFA00260433043F044C045804610466046B045A
:100F0A00700475047A047F0484048C0494049B049A
:100F1A00A304AA04B204B904C004C604CD04D304C9
:100F2A00D904E004E604EC04F004F404F704FB0436
:100F3A00FF0403050705060504050105FF04FC0473
:100F4A00FA04F704F404F204EF04ED04EA04E804F2
:100F5A00E504E304DE04DA04D504D004CB04C604B1
:100F6A00C204BF04BB04B704B304AF04AB04A704B0
:100F7A00A0049A0493048D04870480047A047504F7
:100F8A0070046A04650460045B0456044F04480450
:100F9A004004380431042904210419041004060405
:100FAA00FD03F403EC03E303DB03D603D203CE030E
:100FBA00CA03C603C303BF03BB03B803B503B10324
:100FCA00AE03AB03AA03AB03AC03AD03AF03B00399
:100FDA00B103B203B203B203B203B203B203B20360
:100FEA00B203B303B603B803BA03BC03BE03C00318
:100FFA00C203C403C503C503C503C503C503C503AB
:10100A00C303C003BD03BA03B703B303B003AD03FD
:10101A00AA03A4039E03980391038B0385037E030B
:10102A00750361033403DD025E022B02FB017802C1
:10103A00B902F00227038003D103FF032D046704DA
:10104A00D5044305B1052508C608AA09F509230AE6
:10105A00510A870A0B0C3F0C730C910CF30C4B0DC5
:10106A00A40DFD0DDC0E070F320FD60E730D7D0D8C
:10107A00E10CED0B030BFA0AB108D2086407C606A5
:10108A005906E603870363017801CB001E0021009D
:10109A003D005A007700A000EE001301240135013B
:1010AA004501570173018F01AD01E4011E025A0285
:1010BA008C02BF02F6022203460358036B037F0326
:1010CA009503AA03C703F8030B04110417041E04AB
:1010DA0024042A042A0428042504220420041D04C2
:1010EA001B0418041604130411040E040B04090447
:1010FA00060404040104FE03FB03F903F603F303E5
:10110A00F003EE03EB03E903E703E603E403E20378
:10111A00E103DF03DE03DC03DA03D903D703D503D4
:10112A00D203D003CD03CB03C803C603C303C3034F
:10113A00C303C303C303C303C303C303C303C30375
:10114A00C303C303C303C303C303C303C303C30365
:10115A00C303C303C403C503C603C703C803C90340
:10116A00CA03CB03CC03CE03D003D203D403D703E1
:10117A00D903DB03DD03DF03E103E303E503E7034D
:10118A00EA03EE03F303F703FB03FF030404080473
:10119A000C04100415041A041F04230428042D0443
:1011AA0034043A04400447044D0453045A046004C6
:1011BA0066046C0475047D0486048E0495049A04FE
:1011CA009F04A404A904AE04B304B804BE04C5046D
:1011DA00CB04D104D804DE04E204E604EB04EF04F1
:1011EA00F504FE0406050E0517051D0523052A0547
:1011FA00300536053D053F054105430545054705CB
:10120A0049054B054D054F054F054F054F054F0540
:10121A004E054C054A0548054605430541053F0567
:10122A003D053B0538053605340531052F052C05E6
:10123A002A0528052505230520051B0515050E0584
:10124A0008050105FB04F604F104EC04E804E304D0
:10125A00DE04D804D104CB04C504BE04B804B10426
:10126A00AA04A2049A0492048A0482047C047804DC
:10127A00740470046B04670463045E045A04530420
:10128A004B0442043A0432042D04280422041D04A7
:10129A00180413040E040A0405040104FD03F903E7
:1012AA00F503F103ED03E903E503E203DE03DF03DC
:1012BA00E003E203E403E503E703E603E503E403EB
:1012CA00E303E203E103DF03DE03DD03DD03DD0302
:1012DA00DD03DD03DD03DD03DC03DA03D803D70313
:1012EA00D503D403D603D803DA03DC03DE03E10310
:1012FA00E303E503E703EA03ED03F003F403000065
:10130A000000AB0114014201F801730151016501AA
:04131A000D0A0000B8
:00000001FF
